{
  "abi": [
    {
      "inputs": [],
      "name": "buyTicket",
      "outputs": [],
      "stateMutability": "payable",
      "type": "function"
    }
  ],
  "bytecode": {
    "object": "0x608060405234801561001057600080fd5b5060cb8061001f6000396000f3fe608060405260043610601c5760003560e01c8063edca914c146021575b600080fd5b60276029565b005b346000541460765760405162461bcd60e51b81526020600482015260166024820152751d1a19481c1c9a58d9481a5cc81a5b98dbdc9c9958dd60521b604482015260640160405180910390fd5b336000908152600160208190526040909120805460ff1916909117905556fea26469706673582212200b3b9520f1287a190a1f83711dfc44e2d9e86a12199266a61c6b3def0012700b64736f6c63430008110033",
    "linkReferences": {}
  },
  "methodIdentifiers": {
    "buyTicket()": "edca914c"
  },
  "id": 0
}