{
  "abi": [
    {
      "inputs": [
        {
          "internalType": "uint256",
          "name": "_price",
          "type": "uint256"
        },
        {
          "internalType": "address",
          "name": "owner",
          "type": "address"
        }
      ],
      "stateMutability": "nonpayable",
      "type": "constructor"
    },
    {
      "anonymous": false,
      "inputs": [
        {
          "indexed": true,
          "internalType": "address",
          "name": "user",
          "type": "address"
        },
        {
          "indexed": true,
          "internalType": "address",
          "name": "newOwner",
          "type": "address"
        }
      ],
      "name": "OwnershipTransferred",
      "type": "event"
    },
    {
      "inputs": [],
      "name": "buyTicket",
      "outputs": [],
      "stateMutability": "payable",
      "type": "function"
    },
    {
      "inputs": [],
      "name": "owner",
      "outputs": [
        {
          "internalType": "address",
          "name": "",
          "type": "address"
        }
      ],
      "stateMutability": "view",
      "type": "function"
    },
    {
      "inputs": [
        {
          "internalType": "uint256",
          "name": "_price",
          "type": "uint256"
        }
      ],
      "name": "setPrice",
      "outputs": [],
      "stateMutability": "nonpayable",
      "type": "function"
    },
    {
      "inputs": [
        {
          "internalType": "address",
          "name": "newOwner",
          "type": "address"
        }
      ],
      "name": "transferOwnership",
      "outputs": [],
      "stateMutability": "nonpayable",
      "type": "function"
    }
  ],
  "bytecode": {
    "object": "0x608060405234801561001057600080fd5b5060405161031538038061031583398101604081905261002f91610081565b600080546001600160a01b0319166001600160a01b03831690811782556040518392907f8be0079c531659141344cd1fd0a4f28419497f9722a3daafe3b4186f6b6457e0908290a350506001556100be565b6000806040838503121561009457600080fd5b825160208401519092506001600160a01b03811681146100b357600080fd5b809150509250929050565b610248806100cd6000396000f3fe60806040526004361061003f5760003560e01c80638da5cb5b1461004457806391b7f5ed14610080578063edca914c146100a2578063f2fde38b146100aa575b600080fd5b34801561005057600080fd5b50600054610064906001600160a01b031681565b6040516001600160a01b03909116815260200160405180910390f35b34801561008c57600080fd5b506100a061009b3660046101c9565b600155565b005b6100a06100ca565b3480156100b657600080fd5b506100a06100c53660046101e2565b610135565b34600154146101195760405162461bcd60e51b81526020600482015260166024820152751d1a19481c1c9a58d9481a5cc81a5b98dbdc9c9958dd60521b60448201526064015b60405180910390fd5b336000908152600260205260409020805460ff19166001179055565b6000546001600160a01b0316331461017e5760405162461bcd60e51b815260206004820152600c60248201526b15539055551213d49256915160a21b6044820152606401610110565b600080546001600160a01b0319166001600160a01b0383169081178255604051909133917f8be0079c531659141344cd1fd0a4f28419497f9722a3daafe3b4186f6b6457e09190a350565b6000602082840312156101db57600080fd5b5035919050565b6000602082840312156101f457600080fd5b81356001600160a01b038116811461020b57600080fd5b939250505056fea2646970667358221220234743c7bce2e7e4597627e8b26486b95c7b5c3574a85d7c1dafe9511a997f5864736f6c63430008110033",
    "linkReferences": {}
  },
  "methodIdentifiers": {
    "buyTicket()": "edca914c",
    "owner()": "8da5cb5b",
    "setPrice(uint256)": "91b7f5ed",
    "transferOwnership(address)": "f2fde38b"
  },
  "id": 1
}